:020000040800F2
:10000000F0D00020450100082D0400082F0400084E
:1000100037040008390400083B0400080000000011
:100020000000000000000000000000003D04000887
:100030003F040008000000004104000843040008D9
:100040005F0100085F0100085F0100085F01000810
:100050005F0100085F0100085F0100085F01000800
:100060005F0100085F0100085F0100085F010008F0
:100070005F0100085F0100085F0100085F010008E0
:100080005F0100085F0100085F0100085F010008D0
:100090005F0100085F0100085F0100085F010008C0
:1000A0005F0100085F0100085F0100085F010008B0
:1000B0005F0100085F0100085F0100085F010008A0
:1000C0005F0100085F0100085F0100085F01000890
:1000D0005F0100085F0100085F0100085F01000880
:1000E0005F0100085F0100085F0100085F01000870
:1000F0005F0100085F0100085F0100085F01000860
:100100005F0100085F0100085F0100085F0100084F
:100110005F0100085F0100085F0100085F0100083F
:100120005F0100085F0100085F0100085F0100082F
:10013000DFF80CD006F064FA00480047C901000857
:10014000F0D000200648804706480047FEE7FEE75B
:10015000FEE7FEE7FEE7FEE7FEE7FEE7FEE7FEE777
:10016000D11E00083101000820A006F05BFAFBE771
:1001700030B58FB02821684606F02DF814210AA862
:1001800006F029F801210804CDE9001000240294AA
:1001900002250491CDE907504FF4E010099068461C
:1001A00003F03DFB60B90F20CDE90A056802CDE9F7
:1001B0000C4002210AA80E9403F079FD002801D01A
:1001C000FFF7D2FF0FB030BD03F0F6F9FFF7D0FF15
:1001D00000F016F800F0BEF800F05EF800F05CF9F0
:1001E00042F21074204603F023FAFBE75F45727277
:1001F0006F725F48616E646C65720D0A00000000EA
:100200002DE9F04186B00024204800940194029426
:100210000394816941F004018161816901F0040165
:100220000491816941F0100181618069184F00F0EB
:100230001000049000225621384604F074F8DFF8CC
:10024000548000221021404604F06DF8562001250C
:100250000226CDE90005CDE902466946384603F09D
:10026000B5FE0820CDE9000469463846029403F043
:10027000ADFE1020CDE90005CDE9024669464046B5
:1002800003F0A4FE06B0BDE8F081000000100240BB
:1002900000080140001001402B4810B529490160B9
:1002A0004FF48271416000218160C1604FF400729F
:1002B0000161C0E905122822C0E90721416281627B
:1002C0000A21C16201F067FE002803D0BDE810409A
:1002D000FFF74ABF10BD00B585B000210091019124
:1002E000029103910068174988421AD11748816921
:1002F00041F480518161816901F4805104918169E7
:1003000041F0040181618069694600F004000490B5
:10031000A020009002200190032003900C4803F0DD
:1003200055FE05B000BD00680649884208D107485F
:10033000816921F480518161A021054803F04CBFFF
:1003400070470000003001404000002000100240D3
:1003500000080140324810B5304901604FF4E131E6
:100360004160002181600C22C160C0E904128161FA
:10037000C16104F0ADFF002803D0BDE81040FFF7D5
:10038000F3BE10BD30B585B00024009401940294F2
:10039000039400682149884224D12248816941F4AC
:1003A00080418161816901F480410491816941F05A
:1003B0000401816180691C4D00F0040004904FF439
:1003C00000700090022001900320039069462846A7
:1003D00003F0FCFD2815CDE9000469462846029487
:1003E00003F0F4FD05B030BD00680C49884209D126
:1003F0000C48816921F4804181614FF4C0610A4851
:1004000003F0EABE704713B54FF6FF730122694649
:10041000034805F0A7F800981CBD00000038014013
:10042000980000200010024000080140704706A01C
:1004300006F0F8F8FEE7FEE7FEE7FEE770477047D4
:10044000704703F0D7B80000486172644661756C6C
:10045000745F48616E646C65720000000C4808B5FA
:10046000816941F001018161816901F0010100911F
:10047000C16941F08051C161C06900F080500090B5
:100480000448416821F0E06141F00071416008BD1D
:1004900000100240000001402DE9FE4376A006F066
:1004A000C1F800F0F5FC4FF0FF3410B12046BDE874
:1004B000FE8379A006F0B6F800F029FA012000F0DA
:1004C00084FB49F6607006F0D1F95FEA00087DD040
:1004D0007AA006F0A7F8FF2000900023F0224FF446
:1004E0002A71404600F014FD042000F046FD79A07A
:1004F00006F098F800F0B0FA7E4800F0B8FB4FF430
:10050000FA69484603F094F87BA006F08BF800F0F7
:10051000FEF9404600F018FD012000F0F0FD7DA03E
:1005200006F080F801242346032250210A2000947B
:1005300000F04FFE02231A465A210A20009400F0D0
:1005400048FE0323002264210A20009400F041FEAB
:100550000325CDE9005400264622782311461420B5
:10056000029600F090FECDE9005446217823142233
:100570000846029600F087FE02270097CDE9014663
:10058000462278231146142000F0C5FFCDE90074FF
:100590007823822246215020029400F0BCFFCDE94E
:1005A0000046002314225F212D2001F009F8009459
:1005B000002314225F216920019401F001F8CDE9A4
:1005C00000545F237D221946552000E04FE002943D
:1005D00000F059FECDE90074692273234B211046C7
:1005E000029400F050FECDE900574E4B4EA2002180
:1005F0000A2001F046F9CDE90076534B53A21E21A3
:100600000A2001F03EF9CDE90054554B55A27D2159
:100610000A2001F070F9CDE90054554B554A3221BA
:100620000A2001F06BFA54A005F0FCFF404600F0F0
:1006300051FB40F6B83002F0FBFF53A005F0F2FF8B
:1006400000F065F9012000F0C0FA54A005F0EAFFBF
:1006500000F08DFB404606F0E1F8484602F0E8FF66
:1006600054A005F0DFFF00F030FC00201FE760A081
:1006700005F0D8FF1AE7000044656275673A204527
:1006800050445F3130696E3835675F74657374202C
:1006900044656D6F0D0A000044656275673A206518
:1006A0002D506170657220496E697420616E6420FE
:1006B000436C6561722E2E2E0D0A00004465627532
:1006C000673A205061696E745F4E6577496D616766
:1006D000650D0A0044656275673A2073686F77207C
:1006E000696D61676520666F722061727261790D54
:1006F0000A000000D868000853656C656374496D92
:100700006167653A426C61636B496D6167650D0AAB
:100710000000000044726177696E673A496D616755
:10072000650D0A00100000205265642C2079656C6C
:100730006C6F772C20776869746520616E64206225
:100740006C61636B0000000008000020466F75724A
:1007500020636F6C6F7220652D50617065720000B0
:1007600018000020CEA2D1A9B5E7D7D30000000021
:100770000000002040E201004550445F446973706E
:100780006C61790D0A00000044656275673A204388
:100790006C6561722E2E2E0D0A0000004465627594
:1007A000673A20476F746F20536C6565702E2E2E4C
:1007B0000D0A000044656275673A20636C6F7365CB
:1007C0002035562C204D6F64756C6520656E746500
:1007D0007273203020706F77657220636F6E73754F
:1007E0006D7074696F6E202E2E2E0D0A00000000B1
:1007F00044656275673A204661696C656420746F70
:10080000206170706C7920666F7220626C61636B1E
:10081000206D656D6F72792E2E2E0D0A000000007E
:1008200010B5FF4C01220221204603F07CFD14206C
:1008300002F0FEFE00220221204603F074FD0A2091
:1008400002F0F6FE01220221204603F06CFDBDE815
:100850001040142002F0ECBE70B5F14C06460022A8
:100860000421204603F05FFD00221021204603F002
:100870005AFDEC4D00221021284603F054FD30466D
:1008800000F0F6FA01221021204603F04CFD284624
:10089000BDE870400122102103F045BD70B5E04C69
:1008A000064601220421204603F03DFD00221021CE
:1008B000204603F038FDDB4D00221021284603F0CE
:1008C00032FD304600F0D4FA01221021204603F018
:1008D0002AFD2846BDE870400122102103F023BD07
:1008E00010B5D1A005F09EFECD4C0821204603F0A6
:1008F00013FD01284FF00A0002D002F099FEF4E740
:1009000002F096FEBDE81040CDA005F08BBE10B5FC
:10091000FFF786FFFFF7E4FF4D20FFF79DFF7820EC
:10092000FFF7BCFFE020FFF797FF0120FFF7B6FFBE
:10093000E520FFF791FF0820FFF7B0FFA220FFF7A7
:100940008BFF0120FFF7AAFF0020FFF785FF2F2074
:10095000FFF7A4FF2120FFF7A1FFA220FFF77CFFF4
:100960000220FFF79BFF0020FFF776FF2F20FFF705
:1009700095FF2120FFF792FFA220FFF76DFF0020D7
:10098000FFF78CFF0120FFF767FF0720FFF786FFC7
:100990000020FFF783FF0620FFF75EFF0D20FFF723
:1009A0007DFF1220FFF77AFF3020FFF777FF20202E
:1009B000FFF774FF1920FFF771FF3D20FFF76EFF6F
:1009C0000C20FFF76BFF3020FFF746FF0820FFF7F2
:1009D00065FF5020FFF740FF3720FFF75FFF6120E2
:1009E000FFF73AFF0220FFF759FFA820FFF756FF55
:1009F0000120FFF753FFE020FFF750FF6520FFF7CE
:100A00002BFF0020FFF74AFF0020FFF747FF0020E1
:100A1000FFF744FF0020FFF741FFE320FFF71CFF33
:100A20008820FFF73BFFE920FFF716FF0120FFF7C3
:100A300035FFB820FFF710FFB520FFF72FFFC820C4
:100A400002F0F6FD0420FFF707FF4FF4FA7002F002
:100A5000EFFDBDE8104043E710B5FFF7E1FEFFF7FB
:100A60003FFF4D20FFF7F8FE7820FFF717FFE0204B
:100A7000FFF7F2FE0120FFF711FFE520FFF7ECFE84
:100A80000820FFF70BFFA220FFF7E6FE0120FFF78B
:100A900005FF0020FFF7E0FE2F20FFF7FFFE2120DB
:100AA000FFF7FCFEA220FFF7D7FE0220FFF7F6FEBD
:100AB0000020FFF7D1FE2F20FFF7F0FE2120FFF7E7
:100AC000EDFEA220FFF7C8FE0020FFF7E7FE0120A1
:100AD000FFF7C2FE0720FFF7E1FE0020FFF7DEFE72
:100AE0000620FFF7B9FE0D20FFF7D8FE1220FFF712
:100AF000D5FE3020FFF7D2FE2020FFF7CFFE1920D1
:100B0000FFF7CCFE3D20FFF7C9FE0C20FFF7C6FE25
:100B10003020FFF7A1FE0820FFF7C0FE5020FFF7AE
:100B20009BFE3720FFF7BAFE6120FFF795FE0220FB
:100B3000FFF7B4FEA820FFF7B1FE0120FFF7AEFEDD
:100B4000E020FFF7ABFE6520FFF786FE0020FFF7F1
:100B5000A5FE0020FFF7A2FE0020FFF79FFE002069
:100B6000FFF79CFEE320FFF777FE8820FFF796FE55
:100B7000E920FFF771FE0120FFF790FEB820FFF794
:100B80006BFEB520FFF78AFEC82002F051FD04205D
:100B9000FFF762FE4FF4FA7002F04AFDFFF7A0FE85
:100BA000E020FFF759FE0320FFF778FEE620FFF76D
:100BB00053FE5C20FFF772FEA520FFF74DFE0020DC
:100BC000FFF76CFEBDE810408AE62DE9F041810197
:100BD00041EA001141EA80010143AA274FF4F0766F
:100BE00001F0FF08102000F0D9F80025002440464D
:100BF00000F002F9641CA4B2BC42F8D36D1CADB283
:100C0000B542F3D3102000F0E0F800250024404660
:100C100000F009F9641CA4B2BC42F8D36D1C1FE0BB
:100C2000000801400010014044656275673A206584
:100C30002D506170657220627573790D0A00000095
:100C400044656275673A20652D5061706572206257
:100C50007573792072656C656173650D0A0000001B
:100C6000ADB2B542D2D3BDE8F04100F0F3B82DE902
:100C7000F0470646AA254FF4F079102000F08EF8D0
:100C80000024002704FB05F807EB4800305C00F067
:100C9000B3F87F1CBFB2AF42F6D3641CA4B24C457C
:100CA000EFD3102000F091F80024002704FB05F892
:100CB00007EB48002844305C00F0B5F87F1CBFB259
:100CC000AF42F5D3641CA4B24C45EED3BDE8F04767
:100CD00000F0C0B82DE9F0478046AA25F026102084
:100CE00000F05CF80024002704FB05F908EB07017D
:100CF00019F8010000F080F87F1CBFB2AF42F5D3B5
:100D0000641CA4B2B442EED300270024552000F0A6
:100D100073F8641CA4B2AC42F8D37F1CBFB2B742D4
:100D2000F3D3102000F051F80024002704FB05F94C
:100D300008EB070119F8010000F075F87F1CBFB23D
:100D4000AF42F5D3641CA4B2B442EED30027002412
:100D5000552000F068F8641CA4B2AC42F8D37F1CA4
:100D6000BFB2B742F3D3BDE8F04700F073B810B597
:100D70000220FFF771FD0020FFF790FD642002F0D4
:100D800057FCFFF7ADFD0720FFF766FDA520FFF735
:100D900085FDBDE81040642002F04ABC70B5324CBD
:100DA000054600220421204603F0BDFA002210214E
:100DB000204603F0B8FA284600F05AF82046BDE86D
:100DC00070400122102103F0AEBA70B50546002232
:100DD0000421254803F0A7FA244C002210212046C4
:100DE00003F0A1FA284600F043F82046BDE8704021
:100DF0000122102103F097BA70B51B4C0546012261
:100E00000421204603F08FFA00221021204603F02F
:100E10008AFA284600F02CF82046BDE870400122EE
:100E2000102103F080BA70B50546012204210E4856
:100E300003F079FA0D4C00221021204603F073FADA
:100E4000284600F015F82046BDE870400122102128
:100E500003F069BA10B51220FFF7FEFC0020FFF77F
:100E60001DFDBDE810403BE50008014000100140B9
:100E700001B54FF47A7301226946224801F079F9ED
:100E800008BD8AB201464FF47A731E4801F071B969
:100E900010B51D4C00220421204603F044FA002224
:100EA0001021204603F03FFA00221021174803F0DA
:100EB0003AFA01224021204603F035FA01220221AC
:100EC000204603F030FA002010BD10B50E4C002271
:100ED0000421204603F027FA00221021204603F0C7
:100EE00022FA00221021094803F01DFA00224021B5
:100EF000204603F018FA20460022BDE810400221E7
:100F000003F011BA40000020000801400010014029
:100F100070B5FE4C049E0025206021816281A6816F
:100F20000220E0824E074FEAD10000D0401C6082D0
:100F3000A282E381258223B1B42B02D0A280E1807A
:100F400070BDA180E28070BDF0490860704710B5A7
:100F500004000BD05A2C09D0B42C07D0B4F5877FED
:100F600004D0BDE81040EAA005F05CBB0146F1A04A
:100F700005F058FBE548C48110BDE44910B50A8965
:100F800002280DD0042813D0062817D0072815D022
:100F9000F0A005F047FBBDE81040F9A005F042BB0A
:100FA000C882DA4852070089C0080CE0488210BDA8
:100FB000C882D64892070089800804E0C882D348D6
:100FC000D20700894008002AF0D0401CEEE710B597
:100FD00004000AD0012C08D0022C06D0032C04D027
:100FE000BDE81040EF4805F01DBB6008C00701D008
:100FF000EDA200E0EEA2E00701D0EBA100E0ECA141
:10100000EDA005F00FFBC148048210BDF0B4BF4C49
:10101000A388834234D3E3888B4231D32346E789C4
:101020001E895D89CFB15A2F1AD0B42F1CD0B7F5C5
:10103000877F42D10B46281A401E80B2218AD9B13F
:10104000012916D0022904D0032936D1F11A491EEC
:101050008BB2281A401E80B20EE003460846EDE728
:10106000711A491E8BB2E9E7301A401E83B2681A22
:10107000E2E7F11A491E8BB29E4201D3854203D2A8
:10108000F0BCD6A005F0CEBAA049E58A4C8A096822
:10109000022D14D0042D23D0062D01D0072D0CD104
:1010A000444304EB5300DB075B0FF025DD400C5C91
:1010B0001201AC43DA4022430A54F0BC7047444367
:1010C00004EBD3058024002A485D03F0070224FACC
:1010D00002F402D004434C55EFE7A0434855ECE737
:1010E000444304EB930094079B075D0F0A5CC02305
:1010F000EB409A43230EEB4013430B54DDE730B52E
:101100008249CA8A022A0AD0042A1CD0062A01D09F
:10111000072A17D140EA00100022C3B23BE00022A8
:10112000C3B20CE0002005E002FB04040D68401C83
:1011300080B22B554C8A8442F6D8521C92B2888ACF
:101140009042EFD830BD830143EA0013002243EA06
:1011500080030343DBB20CE0002005E002FB040443
:101160000D68401C80B22B554C8A8442F6D8521C24
:1011700092B2888A9042EFD830BD002006E000BFCE
:1011800002FB04040D68401C80B22B554C8A84423B
:10119000F6D8521C92B2888A9042EED830BD2DE922
:1011A000F0471F4616460D468046DDF820900CE0BD
:1011B000444606E04A4629462046FFF727FF641CBE
:1011C000A4B2B442F6D36D1CADB2BD42F0D3BDE8BB
:1011D000F0872DE9F05F4D4D93468146AA880A9825
:1011E0001C4688464A4502D3EA8842450ED285A06D
:1011F00005F018FAAA88494692A005F013FAEA8881
:101200004146BDE8F05F98A005F00CBA012801D076
:10121000002635E00025681E00EB440719E009EBC5
:1012200005000026A0EB040A0FE000BFBAF1000F92
:101230000DD408EB0600001B09D481B21FFA8AF016
:101240005A46FFF7E3FE761C36B2B742EEDC6D1C61
:101250002DB2AF42E3DCBDE8F09F002509EB0607A5
:101260007F1E09E008EB0500401E81B2B8B25A4665
:10127000FFF7CCFE6D1C2DB2A542F3DB761C36B217
:10128000A642EADBE7E72DE9FE4F1D461F4B164657
:101290009A88824206D3DB888B4203D3B24201D3C1
:1012A000AB4204D2BDE8FE4F79A005F0BBB983463E
:1012B0008A46321A00D5821B91466A1A002A00DD3E
:1012C0004A1B90464FF0FF32B34501D2012000E0A7
:1012D00010460290AA4500D2012209EB080400271B
:1012E00001927F1C0E98FFB2012805D10320B7FBA5
:1012F000F0F100FB117040B10120DDE90C230090FA
:1013000051465846FFF765FFE2E0F8E0D8000020BC
:1013100044656275673A20726F74617465203D2080
:10132000302C2039302C203138302C203237300D01
:101330000A00000044656275673A205365742069AD
:101340006D61676520526F746174652025640D0AB4
:101350000000000044656275673A205365742053AD
:1013600063616C6520496E70757420706172616D87
:1013700065746572206572726F720D0A000000005C
:1013800044656275673A205363616C65204F6E6CEB
:101390007920737570706F72743A20322034203760
:1013A0000D0A0000002303086D6972726F7200005D
:1013B0006E6F6E650000000044656275673A206DCF
:1013C0006972726F7220696D61676520783A257362
:1013D0002C20793A25730D0A0000000044656275DF
:1013E000673A20457863656564696E672064697350
:1013F000706C617920626F756E6461726965730DDE
:101400000A00000044656275673A205061696E7495
:101410005F44726177506F696E7420496E707574A5
:10142000206578636565647320746865206E6F72EB
:101430006D616C20646973706C61792072616E6794
:10144000650D0A0058706F696E74203D2025642078
:101450002C205061696E742E5769647468203D2099
:10146000256420200D0A200059706F696E74203D9C
:10147000202564202C205061696E742E48656967B0
:101480006874203D20256420200D0A200000000003
:1014900044656275673A205061696E745F44726199
:1014A000774C696E6520496E707574206578636548
:1014B00065647320746865206E6F726D616C206462
:1014C0006973706C61792072616E67650D0A000046
:1014D000B8EB440F07DCB3451BD0029944440BEB37
:1014E00001001FFA80FBB9EB440FFFF6FAAEAA45E4
:1014F0000FD001984C4450441FFA80FAF1E60120C5
:101500000090FF22514658460D9BFFF762FE0027D0
:10151000FAE6BDE8FE8F2DE9FE4F8246FA48914675
:101520000C46DDE90D5281880C9E1F46514506D3BD
:10153000C088A04203D3494501D3B84204D2BDE8D4
:10154000FE4FF2A005F06EB80020804662B90EE0B2
:10155000CDE9006523464A4619465046CDF8088035
:10156000FFF791FE641CA4B2BC42F1D3D1E7CDE9F0
:10157000006523464A4619465046CDF80880FFF7D5
:1015800082FECDE9006552463B4621461046CDF825
:101590000880FFF778FECDE900654A4623463946C4
:1015A0001046CDF80880FFF76EFECDE900653B469A
:1015B000524619464846CDF80880FFF764FEA8E772
:1015C0002DE9FF4F8046D04885B00F468488139997
:1015D000444502D3C088B84205D809B0D748BDE811
:1015E000F04F05F01FB803200024A0EB420015B215
:1015F0000FFA80FA01297AD0E9E0264661E000BFBF
:101600004FF0010908EB040007EB060B02901FFAEC
:101610008BF1CDF8009080B24B46089AFFF7D9FDC8
:10162000A8EB040004901FFA8BF1CDF8009080B273
:101630000123089AFFF7CDFD3819CDE9009081B25A
:10164000A8EB060B1FFA8BF00123089AFFF7C1FDE8
:10165000381B039081B2CDF800901FFA8BF0012364
:10166000089AFFF7B6FD0498A7EB060B1FFA8BF15B
:10167000CDF8009080B20123089AFFF7AAFD0298E6
:101680001FFA8BF1CDF8009080B20123089AFFF782
:10169000A0FD039808EB060B81B2CDF800901FFA6D
:1016A0008BF00123089AFFF794FD0198CDF8009084
:1016B00081B21FFA8BF00123089AFFF78AFD761C8E
:1016C00036B2AE429CDDBAF1000F06DA0AEB8400B6
:1016D000801D0FFA80FA08E009E0611B0AEB810027
:1016E0000A306D1E0FFA80FA2DB2641C24B2AC428F
:1016F00083DD09B0BDE8F08F08EB0400012607EB9D
:10170000050902901FFA89F1009680B2129B089A8F
:10171000FFF75FFDA8EB040003901FFA89F1009624
:1017200080B2129B089AFFF754FD3819CDE900608A
:1017300081B2A8EB05091FFA89F0129B089AFFF7FE
:1017400048FDA7EB040B1FFA8BF11FFA89F00096F6
:10175000129B089AFFF73DFD0398A7EB05091FFAB6
:1017600089F1009680B2129B089AFFF732FD029829
:101770001FFA89F1009680B2129B089AFFF729FDA3
:1017800008EB05091FFA8BF11FFA89F00096129BEE
:10179000089AFFF71EFD0198009681B21FFA89F0A2
:1017A000129B089AFFF715FDBAF1000F05DA0AEB54
:1017B0008400801D0FFA80FA07E0611B0AEB8100AC
:1017C0000A306D1E0FFA80FA2DB2641C24B2AC42AE
:1017D00092DD8EE72DE9F05F81464B481E46DDF82D
:1017E0002CB0838888464B4502D3C188414504D23A
:1017F000BDE8F05F52A004F015BFB088410700D0EB
:10180000012101EBD000203AF18850434843316870
:101810004FF0800A0F1800252FE0002424E000BFBD
:10182000BBF1FF0F3A7804F007012AFA01F002EA4F
:10183000000201D00AB908E082B108EB050081B2CC
:1018400009EB040080B20A9A06E008EB050081B2B9
:1018500009EB040080B25A46FFF7D8FBE04340078B
:1018600000D17F1C641CA4B2B088A042D8D83079C3
:10187000400700D07F1C6D1CADB2F088A842CCD8C8
:10188000E9E42DE9FC5F80461F4889460D468188C2
:101890004446DDF834B01E461746A14203D3C18842
:1018A0008246A94222D2BDE8FC5F354804F0BABEA8
:1018B000B088BAF804300119994203D9F188444636
:1018C00029448DB2F188BAF806002944814201D931
:1018D00044464D460C983346CDE900B02946204693
:1018E000FFF778FFB0887F1C204484B23A78002A42
:1018F000DED1BDE8FC9F2DE9F05F1D46904606460F
:101900008A46DDF82CB0F3E0D8000020446562750B
:10191000673A20496E7075742065786365656473F5
:1019200020746865206E6F726D616C2064697370DD
:101930006C61792072616E67650D0A00A823030847
:1019400044656275673A205061696E745F447261E4
:10195000774368617220496E70757420657863659D
:1019600065647320746865206E6F726D616C2064AD
:101970006973706C61792072616E67650D0A000091
:10198000642303087F294FF0000053D8AA884BE056
:1019900053232C68434314F813308B4243D1532113
:1019A0004843022101EB400004EB0009002736E028
:1019B00000242BE04FEAE47004EB507020F00700A5
:1019C000A4EB0002BBF1FF0F99F800104FF080006C
:1019D00020FA02F001EA000101D009B907E071B173
:1019E0000AEB070081B2301980B20A9A05E00AEBCF
:1019F000070081B2301980B25A46FFF707FBFB4857
:101A00002040072801D109F10109641C2889A0425E
:101A1000D0DC287A400701D009F101097F1C6889D0
:101A2000B842C5DC02E0401C8242B1DC08F101088A
:101A3000E8885CE00127AB8854E053222C684243DD
:101A400014F812C08C454CD107EB4202A45C98F804
:101A50000120944245D1532250430222296802EBCF
:101A6000400001EB0009002737E000242CE000BF14
:101A70004FEAE47004EB507020F00700A4EB000282
:101A8000BBF1FF0F99F800104FF0800020FA02F030
:101A900001EA000101D009B907E071B10AEB0700C2
:101AA00081B2301980B20A9A05E00AEB070081B2D0
:101AB000301980B25A46FFF7A9FACC4820400728CF
:101AC00001D109F10109641C2889A042D0DC287ADF
:101AD000400701D009F101097F1C6889B842C4DCC4
:101AE00002E0401C8342A8DC288908F10208064471
:101AF00098F8001000297FF445AFC1E62DE9FF4FAB
:101B0000ADF5037D8846DDE990AB814600244FF4B6
:101B1000807715462646394642A804F05CFB3946D4
:101B200002A804F058FBB24842AA83884B4502D36E
:101B3000C188414505D2AFA004F074FD0DF5077DC5
:101B4000D8E50A210DF1080095FBF1F301FB1353D1
:101B500095FBF1F530330355641C24B2002DF3D10D
:101B60001146002C08DD031913F8013C8B55761C37
:101B7000641E36B224B2F4E7CDE900BA41464846C5
:101B8000869BFFF77EFED9E72DE9FF5FADF5067D69
:101B900000244FF48079164698462546494642A8C7
:101BA000959F04F018FB494602A804F014FB42A8D4
:101BB00083903046414604F01CFC8D49869A83464A
:101BC0008B88934203D3CA8887998A4205D289A019
:101BD00004F028FD0DF50A7D52E64FF00A090DF1DB
:101BE000080A67B304F0DBFB3246434604F0D4FB3B
:101BF00004F01EFCFEB2DFF83C8204E0414604F033
:101C0000F5FA761EF6B2002EF8D104F0D9FBF9B23F
:101C10004A4653460CE000BF90FBF2F602FB160664
:101C2000303690FBF2F01E55641C491E24B2C9B236
:101C30000029F1D12E200AF80400641C24B2584671
:101C40004A46514690FBF2F302FB130390FBF2F07D
:101C500030330B55641C24B20028F3D142A8002C69
:101C600008DD0A1912F8012C42556D1C641E2DB2B4
:101C700024B2F4E7DDE99610CDE90001DDE9860143
:101C8000949B839AFFF7FDFDA4E72DE9FF4F85B0F4
:101C900069A117468046DDE9126507C902AB4FF01E
:101CA0000A0983E8070039790898B1FBF9F19A46E7
:101CB00084881AF80120CDE900564046089B069911
:101CC000FFF788FD397908EB040BB1FBF9F209FB4A
:101CD00012111FFA8BF01AF80120CDE90056089B6B
:101CE0000699FFF777FDCDE900560BEB940000EB6A
:101CF000540080B23A22089B0699FFF76BFD797970
:101D000008EB4400B1FBF9F100EB54001AF8012094
:101D1000CDE9005680B2089B0699FFF75BFD797903
:101D200004EB440BB1FBF9F209FB12110BEB0800B9
:101D30001AF80120CDE9005600EB540080B2089B50
:101D40000699FFF747FD08EB8400CDE9005600EB4C
:101D50005400A0EB940080B23A22089B0699FFF74A
:101D600039FDB979089BB1FBF9F11AF8012004EBB0
:101D70008401CDE9005601EB080080B20699FFF717
:101D800029FDBA7908EB4B00B2FBF9F109FB1121EF
:101D900080B21AF80120CDE90056089B0699FFF79A
:101DA00019FDA6E470B50022114B0DE0002106E0FC
:101DB00002FB04141E68055D491C355589B25C8A16
:101DC0008C42F5D8521C92B2998A9142EED870BDDD
:101DD0002DE9FF5F8B46DDF838A01E4659074FEA14
:101DE000D30000D0401C8146002450E00700008052
:101DF000D800002044656275673A205061696E74AE
:101E00005F4469734E756D20496E707574206578F6
:101E1000636565647320746865206E6F726D616CB4
:101E200020646973706C61792072616E67650D0A58
:101E300000000000000020413031323334353637A5
:101E4000383900000298002504FB09F704EB00086C
:101E500019E000980F9900EBD5000029385C05F0D7
:101E6000070100FA01F003D040F3C012521C01E058
:101E7000C0F3C01205EB0B001FFA88F180B2FFF728
:101E8000C5F86D1CADB2B542E3D3641CA4B2544591
:101E9000D8D3BDE8FF9FF0B500230C4A491E11E0DE
:101EA00000240AE0978A03FB05466F434F438519D8
:101EB000641C7D5D1768A4B2BD55558AA542F1D852
:101EC0005B1C9BB2948A9C42EAD8F0BDD8000020EB
:101ED0002948016841F0010101604168274A114029
:101EE0004160016821F4102121F0807101600168D6
:101EF00021F480210160416821F4FE0141604FF42A
:101F00001F0181601E49C003086070471A4B586862
:101F100000F00C001B4A1C4900280ED004280ED0EB
:101F200008280ED00A605868184AC0F30310105CE5
:101F30000A6822FA00F0086070470A60F3E70A6056
:101F4000F1E7586800F470105A6802F480324FF0DC
:101F5000020C0CEB90403AB15A6812F4003F07D0E3
:101F60000B4A50430860DEE7094A50430860DAE74D
:101F7000044A50430860D6E7001002400000FFF812
:101F800008ED00E000127A0024000020E622030899
:101F900000093D00704770B50446002C09D0606A06
:101FA000002540B125616561A56294F8510040B1FA
:101FB0000CE0012070BD6068B0F5827FF4D0E5616F
:101FC000F2E784F850502046FEF785F9022084F8A5
:101FD00051002068016821F040010160A08821893A
:101FE00000F4827001F404410843A18901F4006106
:101FF0000843217C01F002010843217D01F0010129
:102000000843218B01F400710843217F01F038015E
:10201000084394F8201001F080010843218D01F459
:102020000051084321680860A169042000EA1140BA
:10203000216848602068C16921F40061C16165655B
:10204000012084F85100002070BD704710B504468F
:10205000002C11D0022084F851002068016821F082
:10206000400101602046FEF75EF90020606584F8BB
:10207000510084F8500010BD012010BD2DE9F84337
:1020800004460F4690469946089D01F0B9FA401B58
:10209000A9EB000501F0B4FA0646FE480068C0F35B
:1020A000CB30684300902068806837EA00000ED08B
:1020B0000020404546D0B9F1FF3F3BD001F0A0FAE7
:1020C000801BA84205D225B1009870B32FE00120F3
:1020D000EFE72068416821F0E00141606068B0F5F9
:1020E000827F0BD1A068B0F5004F02D0B0F5806FB1
:1020F00004D12068016821F040010160A06AB0F5B8
:10210000005F09D12068016821F400510160206856
:10211000016841F400510160012084F85100002061
:1021200084F850000320BDE8F883FFE700250098FD
:10213000401E00902068806837EA000005D000202B
:102140004045B8D10020BDE8F8830120F8E738B554
:1021500004460B460092002280212046FFF78EFFA6
:1021600028B1606D40F020006065032038BD00207C
:1021700038BD2DE9F84F04468B4692461D46002691
:1021800094F8500001280DD04FF0010984F85090C8
:1021900001F036FA074694F85100B046012804D001
:1021A0000226ADE00220BDE8F88FBBF1000F1CD085
:1021B0005FEA0A0019D0032084F85100C4F8548063
:1021C000C4F830B0A4F834A0A4F836A0C4F838801D
:1021D000A4F83C80A4F83E80C4F84480C4F8408051
:1021E000A068B0F5004F02D00BE0012688E020681F
:1021F000016821F0400101602068016841F48041DC
:1022000001602068016811F0400F03D1016841F0BE
:1022100040010160E068B0F5006F05D0606888B3E8
:10222000BAF1010F31D03AE0606810B1BAF1010F94
:1022300009D1206B21680088C860206B801C206356
:10224000E08E401EE086E08E002845D02068816840
:1022500011F0020F09D0216B0988C160206B801C2E
:102260002063E08E401EE08608E001F0C9F9C01B43
:10227000A84202D3B5F1FF3F05D125B1E08E002879
:10228000E4D129E001E003263AE0206B21680078E0
:102290000873206B401C2063E08E401EE086E08EB9
:1022A000D0B12068816811F0020F09D0216B097844
:1022B0000173206B401C2063E08E401EE08608E026
:1022C00001F09EF9C01BA84202D3B5F1FF3F0ED129
:1022D0006DB1E08E0028E4D13A4629462046FFF74A
:1022E00036FF08B120206065A06810B105E0032624
:1022F00006E02068C16880680090606D00B101262A
:1023000084F8519084F850803046BDE8F88F38B595
:1023100004466068B0F5827F0BD1A068B0F5004F2D
:1023200002D0B0F5806F04D12068036823F0400329
:1023300003606068B0F5827F03D1A068B0F5806F5C
:102340000DD00B460092002280212046FFF796FE1A
:1023500098B1606D40F020006065032038BD0B46E9
:102360000092002201212046FFF788FE28B1606D0F
:1023700040F020006065032038BD002038BD2DE905
:10238000F84F04460A9E8A4693461F4601254FF0A1
:10239000000894F8500001280ED0012084F8500065
:1023A00001F02EF9814694F85100616801280ED0A1
:1023B000B1F5827F07D102E00220BDE8F88FA16865
:1023C00009B9042803D04FF0020800F0CEB8BAF1E2
:1023D000000F1DD0BBF1000F1AD0380018D094F8B0
:1023E0005100042802D0052084F8510000206065C7
:1023F000C4F838B0E787A787C4F830A0E786A78677
:10240000206460642068016811F0400F03D006E08A
:102410004FF00108A9E0016841F040010160E06867
:10242000B0F5006F05D0606800284BD0012F49D06F
:1024300081E0606808B1012F3DD1206B21680088E0
:10244000C860206B801C2063E08E401EE08632E076
:102450002068816811F0020F0DD0E18E59B1012D75
:1024600009D1216B0988C160206B801C2063E08E3C
:10247000401EE08600252068816811F0010F0ED013
:10248000E18F61B1C068A16B0880A06B801CA06364
:10249000E08F01E024000020401EE087012501F0CC
:1024A000AFF8A0EB0900B04205D3B6F1FF3F02D070
:1024B0004FF0030859E0E08E0028C9D1E08F0028D2
:1024C000C6D13EE0206B216800780873206B401C69
:1024D0002063E08E401EE0862DE02068816811F0C8
:1024E000020F0DD0E18E59B1012D09D1216B097870
:1024F0000173206B401C2063E08E401EE0860025A7
:102500002068816811F0010F0BD0E18F49B1C068DC
:10251000A16B0870A06B401CA063E08F401EE08799
:10252000012501F06DF8A0EB0900B04202D3B6F12D
:10253000FF3F11D186B1E08E0028CED1E08F002878
:10254000CBD14A4631462046FFF701FE38B14FF065
:1025500001082020606508E04FF0030805E0A0684E
:1025600018B92068C16880680090012084F8510083
:10257000002084F850004046BDE8F88F2DE9F84F60
:1025800004468A4691461D46002660684FF0040BBB
:10259000B0F5827F01D1A06888B194F8500001287D
:1025A00018D0012084F8500001F02AF8074694F86A
:1025B00051004FF0000801280FD002268BE084F86C
:1025C00051B04B465246514620460095FFF7D7FE84
:1025D000BDE8F88F0220BDE8F88FBAF1000F1BD0DC
:1025E000B9F1000F18D084F851B0C4F85480C4F881
:1025F00038A0A4F83C90A4F83E90C4F83080A4F829
:102600003480A4F83680C4F84080C4F84480A068C0
:10261000B0F5004F02D00BE001265CE020680168B5
:1026200021F0400101602068016821F480410160CF
:102630002068016811F0400F03D1016841F04001AA
:102640000160E06880B1E08F58B32068816811F0C4
:10265000010F29D0C068A16B0880A06B801CA0630B
:10266000E08F401EE08728E0E08FD0B120688168CD
:1026700011F0010F09D0007BA16B0870A06B401C0A
:10268000A063E08F401EE08708E000F0B9FFC01BA8
:10269000A84202D3B5F1FF3F04D11DB1E08F00285D
:1026A000E4D10DE0032616E000F0AAFFC01BA8420B
:1026B00002D3B5F1FF3F16D1ADB1E08F0028C4D1F0
:1026C0003A4629462046FFF722FE08B120206065E1
:1026D000606D00B10126012084F8510084F850801B
:1026E0003046BDE8F88F0326F5E77047704710B510
:1026F00082B00446F64845F6C0510068B0FBF1F0E0
:1027000064214843019000F07BFF02462068019954
:10271000B1B10199491E0191816811F0020FF6D003
:10272000416821F0A001416064212046FFF70FFDC0
:1027300018B1606D40F020006065A06828B108E025
:10274000616D41F020016165EAE72068C168806839
:102750000090012084F85100606D20B12046FFF701
:10276000C5FF02B010BD2046FFF7BFFF02B010BD8D
:10277000016B026809781173016B491C0163C18EFA
:10278000491EC186C18E002900D1B0E77047016B98
:1027900002680988D160016B891C0163C18E491EE2
:1027A000C186C18E002900D1A1E7704710B4002373
:1027B00090F850C0BCF1010F0CD04FF0010C80F824
:1027C00050C09C4649B142B190F85140012C06D00E
:1027D000022337E010BC02207047012332E00324BB
:1027E00080F85140C0F854C001638286C286C0F8A8
:1027F00038C0A0F83CC0A0F83EC0C0F840C0C168D6
:1028000011B1B449416401E0B34941648168B1F553
:10281000004F09D101680A6822F040020A6001688D
:102820000A6842F480420A6001684A6842F0A002E5
:102830004A6001680A6812F0400F03D10A6842F04A
:1028400040020A6080F850C010BC184670477047BC
:1028500038B504462068416821F06001416000F00D
:10286000CFFE024664212046FFF751FD18B1606D8E
:1028700040F020006065A06818B92068C1688068D1
:102880000090012084F85100606D18B12046FFF7D8
:102890002DFF38BD2046FFF7DAFF38BD0168097B00
:1028A000826B1170816B491C8163C18F491EC18786
:1028B000C18F002900D1CBE770470168C968826BDE
:1028C0001180816B891C8163C18F491EC187C18FB3
:1028D000002900D1BCE77047704710B582B00446AC
:1028E0007B4845F6C0510068B0FBF1F064214843D5
:1028F000019000F085FE02462068416821F0200129
:102900004160019898B10198401E0190206880684C
:1029100010F0020FF5D064212046FFF718FC18B123
:10292000606D40F020006065A06828B108E0606D2F
:1029300040F020006065EEE72068C1688068009084
:10294000616D012031B184F851002046FFF7CEFEC1
:1029500002B010BD94F85110042906D084F851003B
:102960002046FFF7B9FF02B010BD84F851002046A1
:10297000FFF76DFF02B010BD016B0268097811739B
:10298000016B491C0163C18E491EC186C18E00299D
:1029900008D101684A6822F080024A60C18F00298C
:1029A00000D19AE770470168097B826B1170816BD7
:1029B000491C8163C18F491EC187C18F002908D17D
:1029C00001684A6822F060024A60C18E002900D185
:1029D00083E77047016B02680988D160016B891C2D
:1029E0000163C18E491EC186C18E002908D10168CC
:1029F0004A6822F080024A60C18F002900D16CE74A
:102A000070470168C968826B1180816B891C816382
:102A1000C18F491EC187C18F002908D101684A684A
:102A200022F040024A60C18E002900D155E770476C
:102A300070B44FF0000C90F85040012C0CD00124E1
:102A400080F8504090F8514045680026012C0DD088
:102A5000B5F5827F07D102E070BC0220704785681F
:102A60000DB9042C02D04FF0020C2CE0B1B1AAB188
:102A7000A3B190F85140042C02D0052480F85140B5
:102A8000466501638386C38682638387C387C16883
:102A900039B1124901641249416406E04FF0010C5A
:102AA00011E0104901641049416401684A6842F02C
:102AB000E0024A6001680A6812F0400F03D10A6818
:102AC00042F040020A6080F8506070BC6046704777
:102AD000240000208F27000871270008032A00081F
:102AE000D5290008A72900087929000870B4002317
:102AF000D0F808C00425BCF1000F03D14468B4F538
:102B0000827F0DD090F85040012C0FD0012480F826
:102B1000504090F851600024012E0AD0022338E082
:102B200080F8515070BC13460A4681E770BC022001
:102B3000704779B172B180F85150446581638287E2
:102B4000C28704638486C4864464C16821B1FE4997
:102B5000016403E001231CE0FC490164BCF5004F63
:102B600009D101680A6822F040020A6001680A6817
:102B700022F480420A6001684A6842F060024A60BA
:102B800001680A6812F0400F03D10A6842F040025F
:102B90000A6080F8504070BC1846704710B5406A13
:102BA00001684A6822F003024A60416D41F0100159
:102BB0004165012180F85110FFF798FD10BD38B52F
:102BC00005466C6A00F01CFD02462868006810F09B
:102BD000200F23D12068416821F020014160206846
:102BE000416821F00201416064212046FFF7AFFAFD
:102BF00018B1606D40F020006065A068002118B930
:102C00002068C26880680090E186012084F8510045
:102C1000606D18B12046FFF769FD38BD2046FFF70B
:102C200064FD38BD704710B5406AFFF7FBFF10BD6B
:102C30002DE9F0410446002594F85000012809D000
:102C4000012784F8507094F851000026012804D020
:102C5000022550E00220BDE8F08189B182B1032055
:102C600084F8510066652163A286E286A6636664E5
:102C70002664A687E687A068B0F5004F02D00BE077
:102C8000012538E02068016821F0400101602068DA
:102C9000016841F480410160A16CAD48C862A16C3B
:102CA000AC488862A16CAC480863A06C4663E38EB4
:102CB0002068216B00F10C02A06C01F040FC38B1DF
:102CC000606D40F010006065012584F8517012E0DD
:102CD0002068016811F0400F03D1016841F0400104
:102CE00001602068416841F020014160206841682E
:102CF00041F00201416084F850602846BDE8F0814F
:102D000070B505466C6A00F07BFC024628680068D6
:102D100010F0200F27D12068416821F02001416088
:102D2000A06818B96068B0F5827F16D02068416845
:102D300021F00101416064212046FFF7E8FA08B163
:102D4000202060650020E087012084F85100606D3C
:102D500048B12046FFF7CAFC70BD2068416821F0E9
:102D600003014160E7E72046FFF771FD70BD704742
:102D700010B5406AFFF7FBFF10BD70B505466C6AE1
:102D800000F03EFC02462868006810F0200F1ED1BB
:102D90002068416821F02001416064212046FFF74E
:102DA000D6F918B1606D40F0200060652068416878
:102DB00021F0030141600020E086E087012084F8D3
:102DC0005100606D18B12046FFF790FC70BD2046A1
:102DD000FFF782FD70BD704710B5406AFFF7FBFF3B
:102DE00010BD2DE9F0410446002594F8500001285B
:102DF0000DD0012784F8507094F85100D4F804C025
:102E0000002601280FD0BCF5827F0AD102E0022003
:102E1000BDE8F081D4F808C0BCF1000F01D104284E
:102E200001D002256FE0002933D0002A31D07BB3D6
:102E300094F85100042802D0052084F851006665FA
:102E40002163A386E386A263A387E387266466647F
:102E500094F8510004281ED0E16C4048C862E16C2F
:102E60003F488862E16C3C480863E06C4663E38F4E
:102E70002068A26B00F10C01E06C01F060FB88B1EE
:102E8000606D40F010006065012584F851703AE0F3
:102E9000FFE7012537E0E16C3248C862E16C324857
:102EA0008862DFE72068416841F001014160A06C61
:102EB000C662A06C8662A06C0663A06C4663E38E5B
:102EC0002068216B00F10C02A06C01F038FB38B1D6
:102ED000606D40F010006065012584F8517012E0CB
:102EE0002068016811F0400F03D1016841F04001F2
:102EF00001602068416841F020014160206841681C
:102F000041F00201416084F850602846BDE8F0813C
:102F10002DE9F04104460025A0680423002804D1CF
:102F2000D4F804C0BCF5827F22D094F850C0BCF124
:102F3000010F25D0012784F8507094F851C0002665
:102F4000BCF1010F1FD011E0BB2800089D2800082C
:102F5000272C0008BF2B00089D2B0008D92D000846
:102F60007B2D0008712D0008012D0008022555E079
:102F700084F851302046BDE8F04113460A4630E758
:102F80000220BDE8F08171B16AB184F85130666504
:102F9000A163A287E28726646664A686E686B0F50A
:102FA000004F02D00BE0012538E02068016821F0D5
:102FB000400101602068016821F480410160E16CFA
:102FC000FB48C862E16CFB488862E16CFA48086320
:102FD000E06C4663E38F2068A26B00F10C01E06CAB
:102FE00001F0ADFA38B1606D40F010006065012568
:102FF00084F8517012E02068016811F0400F03D18D
:10300000016841F0400101602068416841F0200101
:1030100041602068416841F00101416084F85060DE
:103020002846BDE8F08181B0E44945F6C052096800
:10303000B1FBF2F16422514300910168009AB2B1F0
:10304000009A521E00928A6812F0020FF6D00A68A7
:1030500022F040020A6001684A6822F0E0024A60F9
:103060000168C968072180F8511001B07047426DAE
:1030700042F040024265EAE701684A6822F08002B5
:103080004A6001680A6822F040020A60072180F85D
:1030900051107047F0B583B004460025C74845F687
:1030A000C0510068B0FBF1F06421484301900198E1
:1030B00002902068416821F0200141602168486841
:1030C00010F0800F0DD0BE4860640298002860D0D8
:1030D0000298401E029094F851000728F5D10198FB
:1030E0000290486810F0400F0DD0B6482064029856
:1030F000002854D00298401E029094F851000728EE
:10310000F5D10198029048684FF0400710F0020F87
:103110004FF0000616D0A06CA0B14663A06C01F081
:103120004CFA00B167652068416821F002014160F6
:103130002068029991B30299491E0291816811F0A9
:10314000020FF6D02068406810F0010F11D0E06C3B
:1031500078B14663E06C01F030FA00B16765206831
:10316000016821F0400101602068416821F00101FF
:103170004160E687E686606D40281AD06665206863
:10318000C16880680090012084F8510003B028468F
:10319000F0BD606D40F040006065A0E704E0606D48
:1031A00040F040006065ACE7606D40F04000606555
:1031B000C8E70125E3E7704738B5446A206801682D
:1031C00021F040010160E06C002545632068416802
:1031D00021F00101416000F013FA0246642120460B
:1031E000FEF7B5FF18B1606D40F040006065A06C5F
:1031F00010B1406B00280FD1E587E586606D40284F
:1032000000D065652068C16880680090012084F85E
:1032100051002046FFF7CFFF38BD00B583B0406AAC
:103220000022816C4A6365490B6845F6C051B3FBC7
:10323000F1F164235943029101684B6823F00203C2
:103240004B600299E9B10299491E029101688968AF
:1032500011F0020FF5D0C16C11B1496B00290ED1EC
:10326000C287C286416D402900D042650168CA68A4
:1032700089680191012180F85110FFF79CFF03B08C
:1032800000BD416D41F040014165E4E72DE9F041A9
:1032900084B0044600260125484845F6C051006820
:1032A000B0FBF1F06421484302900298039020683B
:1032B000416821F0200141602168486810F0800FCA
:1032C0000CD03F486064039818B30398401E0390E5
:1032D00094F851000728F6D102980390486810F03E
:1032E000400F0CD0374820640398B8B10398401EB3
:1032F000039094F851000728F6D102980390A06C2F
:10330000002788B1496811F0020F0CD02E494163A3
:103310000AE0606D40F040006065DDE7606D40F000
:1033200040006065E9E74763E06C40B121684968A7
:1033300011F0010F02D02549416300E04763206886
:1033400040684FF0400810F0020F0AD0A06C40B166
:1033500001F057F920B1A06C4763C4F8548000E035
:1033600000252068406810F0010F0AD0E06C40B1E1
:1033700001F047F920B1E06C4763C4F8548000E0E5
:103380000025012D0FD1E787E786606D40281FD00B
:1033900067652068C16880680190012084F8510049
:1033A0002046FFF708FF04B03046BDE8F08100007A
:1033B000712D0008012D00089D2B0008240000201D
:1033C00079300008273000081B320008B9310008A6
:1033D0000126DEE790F8501001290CD0012180F879
:1033E000501001684A6822F003024A60002180F808
:1033F0005010002070470220704790F850100129AB
:103400000CD0012180F8501001684A6842F0030294
:103410004A60002180F85010002070470220704759
:1034200070B504460025A06C002807D001F0C5F84F
:1034300020B1606D40F0100060650125E06C38B18E
:1034400001F0BBF820B1606D40F01000606501250F
:103450002068416821F003014160012084F8510097
:10346000284670BD10B5406A0021C187C186FFF7AC
:103470003DF910BD38B5044620684268816811F0F6
:10348000400F0BD111F0010F08D012F0400F05D002
:10349000216C01B02046BDE83040084711F0020F12
:1034A00008D012F0800F05D0616C01B02046BDE855
:1034B0003040084701F0200301F0400C53EA0C03B0
:1034C0004CD012F0200F49D011F0400F0AD094F8E0
:1034D0005130032B43D0636D43F004036365C3682D
:1034E0008368009311F0200F09D0616D41F0010154
:1034F000616581680091016821F040010160606DA3
:1035000000282BD02068416821F0E00141600120B3
:1035100084F8510002F0020002F00101084322D0B9
:103520002068416821F003014160134DE06C40B117
:103530004563E06C01F065F818B1606D40F0400043
:103540006065A06C002809D04563A06C01F059F8B3
:10355000002803D0606D40F04000606538BDC16850
:103560008068009038BD2046FFF7C0F838BD90F85D
:1035700051007047406D704765340008704770B562
:103580000446574D4FF47A712878B1FBF0F0554955
:103590000968B1FBF0F001F094FD08B1012070BDA5
:1035A000102C07D200222146501E01F02CFD6C6029
:1035B000002070BD012070BD10B54B48016841F07E
:1035C00010010160032001F00FFD0020FFF7D7FF7D
:1035D000FCF744FF002010BD704710B543484FF082
:1035E000FF31C16000220261C160C260FFF7F4FFD9
:1035F000002010BD3A48816802781144816070470C
:1036000037488068704736484068704770B5002179
:10361000334D2C78844206D028706868FFF7AFFFDE
:10362000014601B12C70084670BD2D4800787047E6
:1036300070B50446FFF7E4FF0546B4F1FF3F02D042
:10364000274800780444FFF7DBFF401BA042FAD371
:1036500070BD4FF0E020016921F002010161704767
:103660004FF0E020016941F00201016170472048FC
:10367000704720480068000C70471E480068C0F37F
:103680000B0070471C48006870471C480068704772
:103690001B48006870471748416841F001014160CC
:1036A00070471448416821F001014160704711489A
:1036B000416841F00201416070470E48416821F0C5
:1036C0000201416070470B48416841F004014160CC
:1036D00070470848416821F00401416070470000CC
:1036E000280000202400002000200240001002409A
:1036F00000070101002004E0E8F7FF1FECF7FF1FBF
:10370000F0F7FF1F2DE9F041FFF77AFF0546F74C70
:10371000206840F001002060206810F0020F0BD1FB
:10372000FFF76EFF401B022802D90320BDE8F0819D
:10373000206810F0020FF3D0206820F0F80040F06D
:1037400080002060FFF75CFF054600266660606829
:1037500010F00C0F0DD041F28837FFF751FF401BDE
:10376000B84202D90320BDE8F081606810F00C0F68
:10377000F3D1E049DE480860DF480068FFF7FFFE4C
:1037800010B10120BDE8F081FFF73AFF054620683F
:1037900020F080702060206810F0007F0BD0FFF7D1
:1037A0002FFF401B022802D90320BDE8F0812068CA
:1037B00010F0007FF3D16660FFF722FF0546206816
:1037C00020F410202060206810F4003F0BD0FFF799
:1037D00017FF401B642802D90320BDE8F081206850
:1037E00010F4003FF3D1206820F480202060606A4C
:1037F00040F080706062A6600020BDE8F08181B07A
:10380000BC494FF4FA520968B1FBF2F14843009009
:1038100000BF0098411E0091FAD201B070472DE917
:10382000F84F0446002C0FD02078B04D10F0010F57
:103830006CD0686800F00C0004280CD0686800F0B8
:103840000C00082803D010E00120BDE8F88F68685C
:1038500010F4803F09D0286810F4003F56D060680B
:10386000002853D10120BDE8F88F6068B0F5803F93
:1038700015D0C8B1B0F5A02F1FD0286820F4803033
:103880002860286820F480202860606858B3FFF71B
:10389000B7FE0646286810F4003F17D036E02868C7
:1038A00040F480302860F0E7286820F480302860F9
:1038B000286820F480202860E7E7286840F480200A
:1038C0002860286840F480302860DEE7FFF798FE23
:1038D000801B642802D90320BDE8F88F286810F403
:1038E000003FF3D012E0FFF78BFE0646286810F485
:1038F000003F0BD0FFF784FE801B642802D9032011
:10390000BDE8F88F286810F4003FF3D120787B4F92
:1039100010F0020F4FF0010B4FF0000854D0686810
:1039200010F00C0F14D0686800F00C00082803D1C8
:10393000686810F4803F0BD0206978B3C7F800B0F6
:10394000FFF75EFE0646286810F0020F12D01DE059
:10395000286810F0020F05D02069012802D001204C
:10396000BDE8F88F2868616920F0F80040EAC100DE
:10397000286029E0FFF744FE801B022802D90320BB
:10398000BDE8F88F286810F0020FF3D0286861694D
:1039900020F0F80040EAC100286015E0FFE7C7F812
:1039A0000080FFF72DFE0646286810F0020F0BD0AE
:1039B000FFF726FE801B022802D90320BDE8F88FFE
:1039C000286810F0020FF3D1207810F0080F30D0E3
:1039D0004B48A169C1B1C0F800B0FFF711FE06461F
:1039E000686A10F0020F0BD1FFF70AFE801B022855
:1039F00002D90320BDE8F88F686A10F0020FF3D0F7
:103A00000120FFF7FCFE14E0C0F80080FFF7F8FD8E
:103A10000646686A10F0020F0BD0FFF7F1FD801B1D
:103A2000022802D90320BDE8F88F686A10F0020F5F
:103A3000F3D1207810F0040F6FD00026E86910F061
:103A4000805F08D1E86940F08050E861E86900F0E3
:103A5000805000900126DFF8ACA0DAF8000010F4E6
:103A6000807F1BD1DAF8000040F48070CAF80000B3
:103A7000FFF7C6FD8146DAF8000010F4807F0DD113
:103A8000FFF7BEFDA0EB0900642802D90320BDE8C2
:103A9000F88FDAF8000010F4807FF1D0E068012898
:103AA00016D0D0B105282FD0286A20F00100286256
:103AB000286A20F004002862E06841F2883A68B37E
:103AC000FFF79EFD8146286A10F0020F27D048E0DC
:103AD000286A40F001002862EEE7286A20F0010021
:103AE0002862286A20F004002862E5E700100240FE
:103AF00000127A00240000202C0000200000424226
:103B00008004424200700040286A40F004002862AD
:103B1000286A40F001002862CEE728E00DE0FFF7B8
:103B20006FFDA0EB0900504502D90320BDE8F88FD6
:103B3000286A10F0020FF2D013E0FFF761FD814612
:103B4000286A10F0020F0CD0FFF75AFDA0EB090015
:103B5000504502D90320BDE8F88F286A10F0020F03
:103B6000F2D1012E03D1E86920F08050E861E069CC
:103B7000F0B3696801F00C01082956D0022810D072
:103B8000C7F86080FFF73CFD0446286810F0007F0E
:103B90005ED0FFF735FD001B022841D90320BDE8A8
:103BA000F88FC7F86080FFF72BFD0646286810F0F5
:103BB000007F0BD0FFF724FD801B022802D90320D1
:103BC000BDE8F88F286810F0007FF3D1206AB0F5C7
:103BD000803F05D16868A16820F400300843686020
:103BE000616A206A0843696821F47411084300E09F
:103BF0002EE06860C7F860B0FFF702FD0446286851
:103C000010F0007F24D1FFF7FBFC001B022802D933
:103C10000320BDE8F88F286810F0007FF3D017E08C
:103C2000286810F0007FB4D112E001280DD0686838
:103C3000226A00F48031914204D1616A00F470106C
:103C4000884205D00120BDE8F88F0120BDE8F88F3B
:103C50000020BDE8F88F85B0CDA083684268016878
:103C6000C0680393029201910490CDA00068009077
:103C7000CC4B5968CC4801F00C02042A11D0082A18
:103C80000FD101A8C1F38342805C11F4803F0AD0B8
:103C90005968C1F340411DF80110C34A5043B0FBBD
:103CA000F1F005B07047C14905B0484370472DE9B0
:103CB000F04704460D46002C17D0DFF8F482D8F800
:103CC000000000F00700A84212D2D8F8000020F04F
:103CD00007002843C8F80000D8F8000000F00700EB
:103CE000A84205D00120BDE8F0870120BDE8F0879B
:103CF0002068AC4E10F0020F14D010F0040F03D067
:103D0000706840F4E0607060207810F0080F03D015
:103D1000706840F460507060706820F0F001A06836
:103D200008437060207810F0010F3AD060680128D5
:103D300006D002280BD0316811F0020F27D00AE01C
:103D4000316811F4003F06D10120BDE8F0873168E9
:103D500011F0007F18D0716821F0030108437060F2
:103D6000FFF74EFC07467068616800F00C00B0EB8E
:103D7000810F16D041F28839FFF742FCC01B48453D
:103D800008D90320BDE8F0870120BDE8F0870120B5
:103D9000BDE8F0877068616800F00C00B0EB810F3F
:103DA000EAD1D8F8000000F00700A8420FD9D8F8EF
:103DB000000020F007002843C8F80000D8F80000F1
:103DC00000F00700A84202D00120BDE8F08720786B
:103DD00010F0040F05D07068E16820F4E06008433B
:103DE0007060207810F0080F06D07068216920F408
:103DF000605040EAC1007060FFF72DFF71686D4AA6
:103E0000C1F30311515CC8406B4908606B480068FE
:103E1000FFF7B5FB0020BDE8F08730B587B00D4651
:103E20000020049002200390032005904FF480703E
:103E300002905C4CA06940F00400A061A06900F011
:103E40000400019002A95E4800F0C0F8606820F00C
:103E5000E0602843606007B030BD5A490120C86463
:103E6000704758490020C86470475348006870473D
:103E700000B5FFF7FAFF4B494968534AC1F30221E5
:103E8000515CC84000BD00B5FFF7EFFF45494968E8
:103E90004D4AC1F3C221515CC84000BD0F210160F1
:103EA000404B196811F4802F4FF0000103D04FF4FC
:103EB000A022426008E01A6812F4803F03D04FF459
:103EC0008032426000E041605A6802F40032826051
:103ED0001A6812F0010F4FF0010201D0026100E0F8
:103EE0000161D3F800C0CCF3C40CC0F814C0D3F8FF
:103EF00020C01CF0040F04D04FF0050CC0F80CC01B
:103F000007E0D3F820C01CF0010F01D0C26000E030
:103F1000C160D3F824C01CF0010F01D0826100E021
:103F20008161196811F0807F02D00221C16100E037
:103F3000C261596801F480310162596801F470115D
:103F4000416270470F220260164A536803F0030370
:103F50004360536803F0F0038360536803F4E06345
:103F6000C360526802F46052D208026110480068CF
:103F700000F0070008607047704710B5094CA06852
:103F800010F0800F03D0FFF7F7FF8020A07210BD64
:103F900002030405060708090A0B0C0D0E0F10108A
:103FA000010200000010024000127A0000093D00EA
:103FB00000200240E6220308240000202C000020FC
:103FC0000008014000004242F62203082DE9F84FA4
:103FD0004FF0000C00230A68002A7DD0DFF8A4838C
:103FE0000F2708F1040909F1040A0AF1040B012260
:103FF00002FA0CF60A683240B2426ED1DFF888E36A
:104000004C68A4EB0E0574452BD00DDC032C34D08A
:1040100005DC34B3012C19D0022C2FD11BE0112C5C
:1040200016D0122C2AD119E0B5F5881F19D006DC5C
:10403000B5F5803F15D0B5F5801F1FD111E0B5F55E
:10404000001F0ED0B5F5041F18D10AE0CB6815E0AB
:10405000CB681B1D12E0CB6808330FE0CB680C3334
:104060000CE08B6823B1012B04D00823466105E0E6
:10407000042303E00823066100E00023B2F5807FFB
:1040800001D2054601E000F1040502D24FEA8C049A
:1040900003E0ACF108044FEA84042E6807FA04FE3A
:1040A00026EA0E0603FA04F446EA04042C604C687F
:1040B00014F0805F11D0B54CA56945F00105A561EC
:1040C000A46904F0010400942CF0030404F180447A
:1040D00004F58034A66801E07CE074E04FEA8C755A
:1040E0004FEA157507FA05FE26EA0E0EA0F1804686
:1040F000B6F5843628D0A0F18046B6F5863625D0B0
:10410000A0F18046B6F5883622D0A0F18046B6F5FB
:104110008A361FD0A0F18046B6F58C361CD0A0F1AF
:104120008046B6F58E3619D0062606FA05F545EA1C
:104130000E05A5604C6814F4803F11D0D8F80040FB
:104140001443C8F8004010E00026EEE70126ECE733
:104150000226EAE70326E8E70426E6E70526E4E781
:10416000D8F800409443C8F800404C6814F4003F6D
:1041700005D0D9F800401443C9F8004004E0D9F84C
:1041800000409443C9F800404C6814F4801F05D0E7
:10419000DAF800401443CAF8004004E0DAF80040BE
:1041A0009443CAF800404C6814F4001F05D0DBF8B3
:1041B00000402243CBF8002005E0DBF8004024EA71
:1041C0000202CBF800200CF1010C0A6832FA0CF262
:1041D0007FF40DAFBDE8F88F2DE9F04F00220029E4
:1041E0006FD0DFF8B091DFF8A8E1DFF8988109F12E
:1041F000040A0F27012393400B40002B7ED022F0AE
:10420000030C0CF1804404F58034D4F808C0950701
:104210002E0F07FA06F505EA0C0B704502D14FF098
:10422000000C1AE0A0F1804CBCF5863C3DD0A0F11A
:10423000804CBCF5883C3BD0A0F1804CBCF58A3C5E
:1042400039D0A0F1804CBCF58C3C37D0A0F1804C2B
:10425000BCF58E3C36D04FF0060C0CFA06FCDC4563
:104260001ED1D4F808C02CEA050CC4F808C0D8F850
:1042700000C02CEA030CC8F800C0DFF81CC1DCF851
:1042800000409C43CCF80040D9F800C02CEA030C55
:10429000C9F800C0DAF800C02CEA030CCAF800C064
:1042A000B3F5807F11D2844611E04FF0010CD4E7C2
:1042B0004FF0020CD1E74FF0030CCEE74FF0040CA7
:1042C000CBE727E04FF0050CC7E700F1040C02D262
:1042D0004FEA820403E0A2F108044FEA8404DCF808
:1042E000005007FA04F625EA06064FF0040505FA21
:1042F00004F446EA0404CCF8004000E004E0D0F8FE
:104300000CC02CEA0303C36002F1010231FA02F38C
:104310007FF470AFBDE8F08F8068084201D00120C3
:10432000704700207047002A01D0016170470904DE
:1043300001617047C26821EA0203114043EA01416A
:104340000161704781B041F480320092009A82612D
:1043500081610099816181690091806910F4803FD9
:1043600002D0002001B07047012001B070477047B3
:1043700010B50A490A68024202D00860FFF7F7FF49
:1043800010BD0000000401400000111000100240A8
:1043900000080140080401400404014014040140E5
:1043A00010B400280ED0FD4B0168FD4A99420CD292
:1043B000FC4B0B44A2FB0332120992000264FA4A3E
:1043C000C2630BE010BC01207047F84B0B44A2FB0A
:1043D0000332120992000264F54AC263022280F895
:1043E00021200A686FF30D12D0F808C043680469F1
:1043F00043EA0C03D0F80CC04CEA040C43EA0C036B
:10440000D0F814C043EA0C03D0F818C043EA0C03F8
:10441000D0F81CC043EA0C031A430A6000218163F0
:10442000012280F8212080F8201010BC0020704765
:1044300000281ED001680A6822F001020A600268A2
:104440000021116002685160026891600268D160C9
:10445000DFF848C30268D24B62450CD2DFF844C390
:104460006244A3FB0232120992000264CE4AC26384
:104470000BE001207047DFF834C36244A3FB023233
:10448000120992000264CA4AC26390F840200123D4
:1044900003FA02F2C36B5A608162C1620163416335
:1044A000816380F8211080F820100020704710B43C
:1044B00090F840C0012404FA0CFCC46BC4F804C09A
:1044C000D0F800C0CCF804304368102B05D0036846
:1044D00099600068C26010BC704703689A60006809
:1044E000C16010BC704770B50446002594F82000E8
:1044F00001280DD0012084F8200094F821C000206C
:10450000BCF1010F06D084F820000225284670BDBA
:10451000022070BD4FF0020C84F821C0A063206817
:10452000D0F800C02CF0010CC0F800C02046FFF706
:10453000BEFF2068016841F001010160E6E770B547
:104540000446002594F8200001280DD0012084F8AD
:10455000200094F821C00020BCF1010F06D084F89F
:1045600020000225284670BD022070BD4FF0020CCD
:1045700084F821C0A0632068D0F800C02CF0010CA2
:10458000C0F800C02046FFF792FFE06A28B120681B
:10459000016841F00E01016009E02068016821F026
:1045A000040101602068016841F00A01016020688F
:1045B000016841F001010160D4E790F82110002268
:1045C000022905D00421816380F820200120704752
:1045D00001680B6823F00E030B6001680B6823F081
:1045E00001030B6090F84030D0F83CC0012101FA83
:1045F00003F3CCF8043080F8211080F82020104616
:1046000070472DE9F05F002490F82110022903D0B3
:1046100004218163012490E001680A6822F00E02FF
:104620000A6001680A6822F001020A60614A0168B2
:10463000614BDFF888C1624D624E634FDFF88C81B9
:10464000DFF85891DFF888A1DFF888B1DFF888E15A
:10465000914232D9994201D101212BE0614501D12A
:10466000102127E0A94202D14FF4807122E0B1422B
:1046700002D14FF480511DE0B94202D14FF4803194
:1046800018E0414502D14FF4801113E0494501D1B2
:1046900001210FE0514501D110210BE0594502D114
:1046A0004FF4807106E0714502D14FF4805101E072
:1046B0004FF48031494A116036E0994201D101211D
:1046C00030E0614501D110212CE0A94202D14FF424
:1046D000807127E0B14202D14FF4805122E0B9420B
:1046E00002D14FF480311DE0414502D14FF48011D9
:1046F00018E0914202D14FF0807113E0494501D199
:1047000001210FE0514501D110210BE0594502D1A3
:104710004FF4807106E0714502D14FF4805101E001
:104720004FF48031204A5160012180F8211000218E
:1047300080F82010416B01B188472046BDE8F09F0A
:104740002DE9F74F82B00446164694F8210002285E
:1047500008D00420A063002084F8200005B00120C8
:10476000BDE8F08F2068016811F0200F06D04FF4EB
:104770008070A06305B00120BDE8F08FDFF83880BD
:10478000DFF83890DFF838A0DFF838B0094F039928
:1047900019B140455FD1042593E021E008040240AF
:1047A000CDCCCCCCF8FFFDBF00000240F8FBFDBF34
:1047B0000004024080000240080002401C00024049
:1047C0003000024044000240580002406C000240A9
:1047D0001C0402403004024044040240040402402D
:1047E000404501D102256CE0484501D1202568E013
:1047F000504502D14FF4007563E0584502D14FF4A3
:1048000000555EE0F949884202D14FF4003558E086
:10481000F749884202D14FF4001552E0B84202D164
:104820004FF000754DE0F349884201D1022548E080
:10483000F149884201D1202543E0F049884201D165
:1048400045153EE0EE49884202D14FF4005538E06C
:104850004FF4003535E0484501D1402531E0504561
:1048600002D14FF480652CE0584502D14FF48045C9
:1048700027E0DE49884202D14FF4802521E0DC495F
:10488000884202D14FF480051BE0B84202D14FF0BC
:10489000806516E0D749884201D1042511E0D64948
:1048A000884201D140250CE0D449884201D1051548
:1048B00007E0D349884202D14FF4804501E04FF42C
:1048C0008025FEF79DFE01902068CE49B84202D9AE
:1048D0000868284002E0CC480068284000286FD1D2
:1048E0002068B84238D9C7490968404501D1082035
:1048F00030E0484501D180202CE0504502D14FF4F2
:10490000006027E0584502D14FF4004022E0B74A4A
:10491000904202D14FF400201CE0B54A904202D1EF
:104920004FF4000016E0B34A904201D1082011E094
:10493000B14A904201D180200CE0B04A904201D1AE
:10494000C01407E0AE4A904202D14FF4004001E0AB
:104950004FF4002008403DE0AB490968404501D1D3
:10496000082036E0484501D1802032E0504502D190
:104970004FF400602DE0584502D14FF4004028E08C
:104980009A4A904202D14FF4002022E0984A904285
:1049900002D14FF400001CE0B84202D14FF0006099
:1049A00017E0944A904201D1082012E0924A9042C6
:1049B00001D180200DE0914A904202D1C01408E05C
:1049C00042E08F4A904202D14FF4004001E04FF4A0
:1049D0000020084098B194F84010E26B012000FAE2
:1049E00001F15160A16B41F00101A16384F8210044
:1049F000002084F8200005B00120BDE8F08FB6F15A
:104A0000FF3F14D02EB1FEF7FBFD0199401AB042D2
:104A10000DD9A06B40F02000A063012084F8210094
:104A2000002084F8200005B00120BDE8F08F206848
:104A3000B84203D973480068284002E07248006811
:104A4000284000283FF44CAF7049039830B12068EB
:104A5000B8426FD940457DD10420ACE02068B8420F
:104A600036D9404501D1022030E0484501D120200F
:104A70002CE0504502D14FF4007027E0584502D198
:104A80004FF4005022E0594A904202D14FF40030D6
:104A90001CE0574A904202D14FF4001016E0554AEC
:104AA000904201D1022011E0534A904201D12020CE
:104AB0000CE0524A904201D1401507E0504A904222
:104AC00002D14FF4005001E04FF4003008603DE0A7
:104AD000404501D1022037E0484501D1202033E094
:104AE000504502D14FF400702EE0584502D14FF4EA
:104AF000005029E03D49884202D14FF4003023E0C4
:104B00003B49884202D14FF400101DE0B84202D167
:104B10004FF0007018E03749884201D1022013E0BD
:104B20003549884201D120200EE03449884203D122
:104B3000401509E041E00DE03149884202D14FF4CF
:104B4000005001E04FF400302F494860012084F804
:104B5000210081E0484501D140202CE0504502D1A0
:104B60004FF4806027E0584502D14FF4804022E0A6
:104B70001E4A904202D14FF480201CE01C4A904211
:104B800002D14FF4800016E01A4A904201D104206D
:104B900011E0194A904201D140200CE0174A90429E
:104BA00001D1001507E0164A904202D14FF480402F
:104BB00001E04FF4802008604EE0404501D1042020
:104BC00048E0484501D1402044E0504502D14FF42F
:104BD00080603FE0584502D14FF480403AE00349FD
:104BE000884215D14FF4802034E000005800024084
:104BF0006C000240080402401C04024030040240E1
:104C00004404024000040240000002400404024048
:104C1000E849884202D14FF480001BE0B84202D13B
:104C20004FF0806016E0E449884201D1042011E091
:104C3000E249884201D140200CE0E149884201D19B
:104C4000001507E0DF49884202D14FF4804001E0BF
:104C50004FF48020DC494860002084F8200005B033
:104C6000BDE8F08F2DE9F05FC16B0A6801680B6841
:104C7000D0F840B04FF0040C0CFA0BFC1CEA020F09
:104C8000DFF848C3D24CD34DD34ED44FDFF8248342
:104C9000DFF82493DFF824A370D013F0040F7ED044
:104CA0000A6812F0200F03D10A6822F004020A6099
:104CB000CB4A0168914233D9614501D104212CE0EE
:104CC000A14201D1402128E0A94202D14FF48061E4
:104CD00023E0B14202D14FF480411EE0B94202D13B
:104CE0004FF4802119E0414502D14FF4800114E0D6
:104CF000494501D1042110E0514501D140210CE08A
:104D0000AF4A914201D1091507E0AE4A914202D162
:104D10004FF4804101E04FF48021B24A116038E045
:104D2000614501D1042132E0A14201D140212EE0B0
:104D3000A94202D14FF4806129E0B14202D14FF47F
:104D4000804124E0B94202D14FF480211FE0414567
:104D500002D14FF480011AE0914202D14FF08061FC
:104D600015E0494501D1042111E0514501D140210F
:104D70000DE0934A914202D1091508E00FE0914AF3
:104D8000914202D14FF4804101E04FF480218E4ADC
:104D90005160C16A002970D0BDE8F05F08474FF04C
:104DA000020E0EFA0BFE1EEA020F67D013F0020F7E
:104DB00064D00A6812F0200F06D10A6822F00A02B5
:104DC0000A60012180F82110854A0168914233D997
:104DD000614501D102212CE0A14201D1202128E02E
:104DE000A94202D14FF4007123E0B14202D14FF445
:104DF00000511EE0B94202D14FF4003119E04145A3
:104E000002D14FF4001114E0494501D1022110E014
:104E1000514501D120210CE0694A914201D1491547
:104E200007E0684A914202D14FF4005101E04FF48B
:104E300000316C4A116039E0614501D1022133E053
:104E4000A14201D120212FE0A94202D14FF40071EB
:104E50002AE0B14202D14FF4005125E0B94202D11B
:104E60004FF4003120E0414502D14FF400111BE026
:104E7000914204D14FF0007116E041E01FE0494536
:104E800001D1022110E0514501D120210CE04C4A12
:104E9000914201D1491507E04A4A914202D14FF4AB
:104EA000005101E04FF40031474A5160002180F881
:104EB0002010816A002923D0BDE8F05F08474FF039
:104EC000080C0CFA0BFC1CEA020F19D013F0080FA7
:104ED00016D00A6822F00E020A6090F84020C36BD8
:104EE000012101FA02F25A60816380F82110002149
:104EF00080F82010016B002902D0BDE8F05F084760
:104F0000BDE8F09F002390F820C0BCF1010F0ED047
:104F10004FF0010C80F820C090F821C0BCF1010FC7
:104F200007D00123002180F8201018467047022086
:104F3000704739B1012907D0022907D0032907D0CA
:104F40000123EFE78262EDE7C262EBE70263E9E784
:104F50004263E7E7002290F82030012B0DD00123B7
:104F600080F8203090F821C00023BCF1010F06D05A
:104F7000012280F820301046704702207047052932
:104F800011D2DFE801F0030507090B008362F0E7A7
:104F9000C362EEE70363ECE74363EAE78362C3625D
:104FA00003634363E5E70122E3E790F821007047DC
:104FB000806B70476C000240080402401C040240F1
:104FC0003004024044040240000002400800024055
:104FD0001C000240300002404400024058000240E1
:104FE000800002400404024000F00700844A116877
:104FF0004FF6FF03194041EA002040F0FD7040F0F9
:1050000080601060704710B47D4B1B68C3F30223AF
:10501000C3F1070CBCF1040F01D94FF0040C1C1DA7
:10502000072C01D2002300E0DB1E012404FA0CFC53
:10503000ACF1010C0CEA0101994004FA03F35B1E88
:105040001A401143002806DB00F1E020090180F836
:10505000001410BC704700F00F0000F1E0200901BF
:1050600080F8141D10BC704700280ADB00F01F01F7
:10507000012202FA01F14009800000F1E020C0F8AD
:105080000011704700280EDB00F01F01012202FA18
:1050900001F14009800000F1E020C0F88011BFF369
:1050A0004F8FBFF36F8F7047BFF34F8F5448016826
:1050B000544A01F4E06111430160BFF34F8F00BF18
:1050C000FDE7401EB0F1807F01D3012070474FF013
:1050D000E02148614C4AF0201070002088610720D0
:1050E00008610020704746480068C0F302207047FE
:1050F00030B4002806DB00F1E02090F800044FEA0D
:10510000101C07E000F00F0000F1E02090F8140DF3
:105110004FEA101C01F00700C0F10701042900D973
:105120000421041D072C01D2002000E0C01E012430
:105130002CFA00F504FA01F1491E2940116004FA25
:1051400000F0401E00EA0C00186030BC70470028D8
:105150000ADB00F01F01012202FA01F14009800080
:1051600000F1E020C0F800127047002810DB410970
:10517000890001F1E021D1F8001200F01F000122A6
:1051800002FA00F0014201D0012070470020704770
:105190000020704700280ADB00F01F01012202FAFC
:1051A00001F14009800000F1E020C0F88012704752
:1051B000002810DB4109890001F1E021D1F800133A
:1051C00000F01F00012202FA00F0014201D001208C
:1051D000704700207047002070474FF0E0210428FE
:1051E00004D0086920F0040008617047086940F0A5
:1051F000040008617047704710B5FFF7FCFF10BD51
:105200000CED00E00400FA0523ED00E070B5044663
:1052100020680169E26821F440511143016121696C
:10522000A0680843616901432068C26822F40372E0
:1052300022F4A0521143C16020684169A26921F49F
:105240004071114341612068A0F18041B1F59C316A
:105250003AD0FEF70DFE00EBC00101EB00106168D3
:10526000F94A8900B0FBF1F3A2FB0353B0FBF1FC58
:105270005B096FF018056B430CEB83034FF0320CA6
:105280000CEB0313A2FB03535B0903F0F005B0FB27
:10529000F1F3A2FB03635B0905EB0313B0FBF1F52C
:1052A000B0FBF1F0A2FB001040096FF01801484379
:1052B00005EB80000CEB0010A2FB00102168C0F38E
:1052C00043101844886070BDFEF7DDFDC3E77047EA
:1052D00070B50446002C04D094F83900002510B1B4
:1052E00006E0012070BD84F838502046FBF74AF8EC
:1052F000242084F839002068C16821F40051C1607D
:105300002046FFF783FF2068016921F49041016185
:105310002068416921F02A0141612068C16841F497
:105320000051C160E563202084F8390084F83A0018
:10533000002070BD70B50446002C04D094F83900EC
:10534000002510B106E0012070BD84F838502046D9
:10535000FBF718F8242084F839002068C16821F48C
:105360000051C1602046FFF751FF2068016921F418
:10537000904101612068416921F02201416120686A
:10538000416941F0080141612068C16841F4005160
:10539000C160E563202084F8390084F83A000020D9
:1053A00070BD70B504460E46002C04D094F8390048
:1053B000002510B106E0012070BD84F83850204669
:1053C000FAF7E0FF242084F839002068C16821F44E
:1053D0000051C1602046FFF719FF2068016921F4E0
:1053E000006101612068416921F02A014161206862
:1053F000016941F4804101612068016921F02001C7
:10540000016120680169314301612068C16841F48C
:105410000051C160E563202084F8390084F83A0027
:10542000002070BD2DE9F04104460E461746002CC1
:1054300004D094F83900002518B107E00120BDE838
:10544000F08184F838502046FAF79CFF242084F835
:1054500039002068C16821F40051C1602046FFF77F
:10546000D5FE2068016921F49041016120684169FD
:1054700021F02A0141612068016921F00F010161D9
:1054800020680169314301612068C16821F400612D
:10549000C1602068C1683943C1602068C16841F4B7
:1054A0000051C160E563202084F8390084F83A0097
:1054B0000020BDE8F081704710B50446002C13D0E1
:1054C000242084F839002068C16821F40051C160AB
:1054D0002046FAF789FF0020E06384F8390084F859
:1054E0003A0084F8380010BD012010BD2DE9F041CC
:1054F0000446069D884617461E462068006838EA1E
:10550000000020D00020B84227D1B5F1FF3F1CD0C9
:1055100025B1FEF775F8801BA84216D92068C1682E
:1055200021F4D071C1602068416921F0010141611D
:10553000202084F8390084F83A00002084F83800EC
:105540000320BDE8F0810120DDE72068006838EA2B
:10555000000005D00020B842D7D00020BDE8F0817F
:105560000120F8E72DE9F84304460E4615461F468C
:1055700094F83900202802D00220BDE8F883C6B193
:10558000BDB194F83800012816D0012084F8380005
:105590004FF00009C4F83C90212084F83900FEF750
:1055A0002FF88046A584E584A068B0F5805F06D01A
:1055B00007E00120BDE8F8830220BDE8F8832069F8
:1055C00080B13546002684F83890E08CB8B1434667
:1055D0000022802120460097FFF788FF20B103209A
:1055E000BDE8F8830025EEE7A5B12168287848607A
:1055F0006D1CE08C401EE084E08C0028E7D143461F
:105600000022402120460097FFF770FF48B1032099
:10561000BDE8F88330882168C0F308004860B61CF4
:10562000E7E7202084F839000020BDE8F8832DE961
:10563000F84304460E4615461F4694F83A002028C3
:1056400004D00220BDE8F8831F85EB51C6B1BDB17F
:1056500094F83800012816D0012084F838004FF063
:105660000009C4F83C90222084F83A00FDF7C8FFF6
:105670008046A585E585A068B0F5805F06D007E087
:105680000120BDE8F8830220BDE8F883206980B1DD
:105690003546002684F83890E08D40B3434600221A
:1056A000202120460097FFF721FF20B10320BDE80D
:1056B000F8830025EEE72DB1A068B0F5805F1CD01F
:1056C00038B108E020684068C0F308003080B61C9C
:1056D00007E0206988B12068406800F07F002870EA
:1056E0006D1CE08D401EE085E08D0028D6D1202085
:1056F00084F83A000020BDE8F883206840682870EC
:10570000EEE790F83930202B01D002207047A9B184
:10571000A2B190F83830012B12D001628284C28489
:105720000021C163212280F8392080F838100068F8
:10573000C16841F08001C1600020704701207047BE
:105740000220704790F83A30202B01D00220704799
:10575000F9B1F2B190F83830012B1CD0816282850A
:10576000C2850021C163222280F83A2080F83810D7
:105770000168CA6842F48072CA6001684A6942F0EE
:1057800001024A610068C16841F02001C160002047
:105790007047012070470220704770470168CA684F
:1057A00022F49072CA6001684A6922F001024A61DB
:1057B000202180F83A1070470168CA6822F0C002C0
:1057C000CA60202180F83910704770B5446A20689B
:1057D0004069C0F3C01094F839100025212904D184
:1057E00018B1E5842046FFF7E7FF20684069C0F361
:1057F000801094F83A10222904D118B1E58520468A
:10580000FFF7CCFFE06B40F01000E0632046FFF7AD
:10581000C4FF70BD704710B5406AFFF7FBFF10BDB5
:10582000704710B50146486A0968096811F0200FF1
:1058300002D0FFF7F5FF10BD0021C18401684A695D
:1058400022F080024A610068C16841F04001C160F5
:1058500010BD37B5044694F83900202802D003B0B3
:10586000022030BD0199002932D0002A30D094F8AE
:10587000380001282FD0012084F838002162A2844A
:10588000E2840025E563212084F83900236BFA487F
:105890009862236BF948D862236BF9481863206B30
:1058A000456320681346001DD4F830C002466046A8
:1058B000FEF745FE21686FF04000086084F838501C
:1058C0002068416941F08001416103B0002030BD92
:1058D00003B0012030BD03B0022030BD704710B5C9
:1058E000406AFFF7FBFF10BD704710B50146486ADC
:1058F0000968096811F0200F13D10021C1850168E2
:10590000CA6822F48072CA6001684A6922F0010202
:105910004A6101684A6922F040024A61202180F808
:105920003A10FFF7E1FF10BD37B582B004461346C9
:1059300094F83A00202802D005B0022030BD039A26
:10594000002A36D0002B34D094F83800012833D008
:10595000012084F83800A262A3850025E563222097
:1059600084F83A00616BC7488862616BC648C862B8
:10597000616BC3480863606B45632068011D606B01
:10598000FEF7DDFD206801684168019184F8385018
:10599000C16841F48071C1602068416941F0010132
:1059A00041612068416941F04001416105B000203A
:1059B00030BD05B0012030BD05B0022030BD90F8EB
:1059C000381001290BD0012180F8381001684A698C
:1059D000C2F3C01290F83930212B02D006E0022029
:1059E00070471AB14A6922F080024A6101684A6927
:1059F000C2F3801290F83A30222B0ED16AB1CA68F5
:105A000022F48072CA6001684A6922F001024A6188
:105A100001684A6922F040024A61002180F838108A
:105A20000020704781B090F83810012907D001217B
:105A300080F8381090F83910212903D007E00220AF
:105A400001B0704701684A6942F080024A6190F8EB
:105A50003A100022222911D101680B684B6800938B
:105A6000CB6843F48073CB6001684B6943F001035A
:105A70004B6101684B6943F040034B6180F838206B
:105A8000002001B0704710B5044620684169C1F399
:105A9000C01194F83920212A0BD151B1416921F06C
:105AA00080014161206B08B1FEF787FD2046FFF7BA
:105AB00083FE20684169C1F3801194F83A20222ABC
:105AC0000BD151B1416921F040014161606B08B1D6
:105AD000FEF773FD2046FFF761FE002010BD70B594
